:020000040000FA
:100000000C9462000C948A000C948A000C948A0070
:100010000C948A000C948A000C948A000C948A0038
:100020000C948A000C948A000C948A000C948A0028
:100030000C948A000C948A000C948A000C948A0018
:100040000C94C6020C948A000C9436030C94100392
:100050000C948A000C948A000C948A000C948A00F8
:100060000C948A000C948A000000000023002600F3
:10007000290000000000240027002A0000000000E2
:10008000250028002B0004040404040404040202D4
:100090000202020203030303030301020408102007
:1000A0004080010204081020010204081020000012
:1000B0000008000201000003040700000000000027
:1000C0000000090511241FBECFEFD8E0DEBFCDBF71
:1000D00011E0A0E0B1E0E0E1FBE002C005900D928C
:1000E000A831B107D9F721E0A8E1B1E001C01D9224
:1000F000A13CB207E1F710E0C2E6D0E004C02197CE
:10010000FE010E948005C136D107C9F70E94AD03E8
:100110000C9486050C940000833081F028F4813023
:1001200099F08230A9F008958730A9F08830C9F09D
:100130008430B1F4809180008F7D03C08091800075
:100140008F7780938000089584B58F7784BD08955C
:1001500084B58F7DFBCF8091B0008F778093B00006
:1001600008958091B0008F7DF9CF1F93CF93DF93D7
:10017000282F30E0F901E255FF4F8491F901E6564E
:10018000FF4FD491F901EA57FF4FC491CC23A9F056
:10019000162F81110E948C00EC2FF0E0EE0FFF1F54
:1001A000E458FF4FA591B4918FB7F894EC911111D9
:1001B00008C0D095DE23DC938FBFDF91CF911F91D4
:1001C0000895DE2BF8CFCF93DF9390E0FC01E65645
:1001D000FF4F24918A579F4FFC0184918823D1F0CF
:1001E00090E0880F991FFC01EE58FF4FA591B49144
:1001F000FC01E458FF4FC591D49161110EC09FB727
:10020000F8948C91E22FE0958E238C932881E22341
:10021000E8839FBFDF91CF9108958FB7F894EC9159
:10022000E22BEC938FBFF6CF3FB7F894809120017B
:1002300090912101A0912201B091230126B5A89BA4
:1002400005C02F3F19F00196A11DB11D3FBFBA2F68
:10025000A92F982F8827BC01CD01620F711D811D28
:10026000911D42E0660F771F881F991F4A95D1F7AD
:1002700008958F929F92AF92BF92CF92DF92EF92AA
:10028000FF924B015C010E9414016B017C010E94F2
:1002900014016C197D098E099F09683E7340810520
:1002A0009105A8F321E0821A9108A108B10888EE0F
:1002B000C80E83E0D81EE11CF11C81149104A10436
:1002C000B10429F7FF90EF90DF90CF90BF90AF90EF
:1002D0009F908F900895AF92BF92CF92DF92EF924E
:1002E000FF920F931F93CF93DF936C017B018B01E0
:1002F000040F151FEB015E01AE18BF08C017D10730
:1003000059F06991D601ED91FC910190F081E02DB9
:10031000C6010995892B79F7C501DF91CF911F910E
:100320000F91FF90EF90DF90CF90BF90AF90089526
:10033000FC01538D448D252F30E0842F90E0821BEB
:10034000930B541710F0CF96089501970895FC0170
:10035000918D828D981761F0A28DAE0FBF2FB11DC8
:100360005D968C91928D9F5F9F73928F90E0089520
:100370008FEF9FEF0895FC01918D828D981731F0DA
:10038000828DE80FF11D858D90E008958FEF9FEF2E
:100390000895FC01918D228D892F90E0805C9F4F04
:1003A000821B91098F739927089584E291E00E943E
:1003B000C90121E0892B09F420E0822F089580E013
:1003C00090E0892B29F00E94D50181110C94000046
:1003D0000895FC01A48DA80FB92FB11DA35ABF4FDA
:1003E0002C91848D90E001968F739927848FA68934
:1003F000B7892C93A089B1898C91837080648C9388
:10040000938D848D981306C00288F389E02D808136
:100410008F7D80830895EF92FF920F931F93CF9368
:10042000DF93EC0181E0888F9B8D8C8D98131AC02F
:10043000E889F989808185FF15C09FB7F894EE8916
:10044000FF896083E889F989808183708064808373
:100450009FBF81E090E0DF91CF911F910F91FF90BE
:10046000EF900895F62E0B8D10E00F5F1F4F0F7366
:100470001127E02E8C8D8E110CC00FB607FCFACF21
:10048000E889F989808185FFF5CFCE010E94E901D5
:10049000F1CFEB8DEC0FFD2FF11DE35AFF4FF082F2
:1004A0009FB7F8940B8FEA89FB8980818062CFCF58
:1004B000CF93DF93EC01888D8823B9F0AA89BB899B
:1004C000E889F9898C9185FD03C0808186FD0DC086
:1004D0000FB607FCF7CF8C9185FFF2CF808185FFA7
:1004E000EDCFCE010E94E901E9CFDF91CF910895D0
:1004F0008F929F92AF92BF920F931F93CF93DF93F0
:10050000CDB7DEB7A1970FB6F894DEBF0FBECDBF53
:1005100019A2423008F44AE08E010F5D1F4F842E6D
:10052000912CB12CA12CA50194010E944A05E62F23
:10053000B901CA01EA3044F5E05DD801EE938D01BE
:10054000232B242B252B79F790E080E0109769F07E
:10055000FD0101900020E9F73197AF014A1B5B0BC9
:10056000BD0184E291E00E946B01A1960FB6F89460
:10057000DEBF0FBECDBFDF91CF911F910F91BF9016
:10058000AF909F908F900895E95CD7CF1F920F9204
:100590000FB60F9211242F933F938F939F93AF9396
:1005A000BF9380911C0190911D01A0911E01B091FB
:1005B0001F0130911B0123E0230F2D3758F50196C1
:1005C000A11DB11D20931B0180931C0190931D015F
:1005D000A0931E01B0931F018091200190912101F1
:1005E000A0912201B09123010196A11DB11D80931C
:1005F000200190932101A0932201B0932301BF9188
:10060000AF919F918F913F912F910F900FBE0F90BF
:100610001F90189526E8230F0296A11DB11DD2CF79
:100620001F920F920FB60F9211242F933F934F9367
:100630005F936F937F938F939F93AF93BF93EF934A
:10064000FF9384E291E00E94E901FF91EF91BF9155
:10065000AF919F918F917F916F915F914F913F915A
:100660002F910F900FBE0F901F9018951F920F9211
:100670000FB60F9211242F938F939F93EF93FF93B5
:10068000E0913401F09135018081E0913A01F091DF
:100690003B0182FD1BC0908180913D018F5F8F7374
:1006A00020913E01821741F0E0913D01F0E0EC5DC8
:1006B000FE4F958F80933D01FF91EF919F918F9118
:1006C0002F910F900FBE0F901F9018958081F4CF3F
:1006D000CF92DF92EF92FF920F931F93E82FF92FA3
:1006E00005C0015011092109310961F1908196235A
:1006F0009417B9F305C0015011092109310911F10D
:10070000908196239413F7CFC12CD12CE12CF12C9E
:100710000AC08FEFC81AD80AE80AF80A0C151D0596
:100720002E053F0579F080818623841791F36C2D87
:100730007D2D8E2D9F2D1F910F91FF90EF90DF90BB
:10074000CF90089560E070E080E090E01F910F91FD
:10075000FF90EF90DF90CF900895789484B58260F9
:1007600084BD84B5816084BD85B5826085BD85B555
:10077000816085BD80916E00816080936E001092D3
:10078000810080918100826080938100809181004E
:1007900081608093810080918000816080938000DF
:1007A0008091B10084608093B1008091B00081603D
:1007B0008093B00080917A00846080937A00809169
:1007C0007A00826080937A0080917A0081608093C1
:1007D0007A0080917A00806880937A001092C1003C
:1007E00061E088E00E94E30060E087E00E94E300AF
:1007F00061E08CE00E94E30061E08DE00E94E30094
:1008000061E085E00E94E300E0913401F091350160
:1008100082E08083E0913001F09131011082E0911B
:100820003201F09133018FEC808310923C01E09112
:100830003801F091390186E08083E0913601F09132
:100840003701808180618083E0913601F09137012A
:10085000808188608083E0913601F091370180814A
:1008600080688083E0913601F091370180818F7D2F
:100870008083C3E2D0E02AE3E22EF12C30EB232E7A
:1008800030E0332E4CE9A42E40E0B42E58E8852EFB
:1008900050E0952E60E0C62E60E0D62E61E088E044
:1008A0000E94B500CE010197F1F760E088E00E9458
:1008B000B500E1EAF0E06491EDE8F0E08491E82F22
:1008C000F0E0EE0FFF1FE859FF4F8591949100E48F
:1008D00012E42FE030E0462F0E9468036115710595
:1008E0008105910529F06F5F7F4F8F4F9F4F9F705C
:1008F000CB01B7010E94360570931A01609319016C
:100900002B01072E000C6608770877FF65C06DE2A3
:1009100084E291E00E940B0266277727CB016419DD
:100920007509860997094AE00E94780244E050E080
:1009300062E171E084E291E00E946B0164E670E0A4
:1009400080E090E00E9439018091190190911A0194
:100950000B9708F045C081E0809318018091180141
:10096000811154C061E085E00E94B500F1018491DD
:10097000F5017490F40164906620A9F181110E9440
:100980008C00E62DF0E0EE0FFF1FE859FF4FA59118
:10099000B4918C91782239F16AE070E080E090E0C7
:1009A0000E94390160E08CE00E94B5006AE070E0CE
:1009B00080E090E00E94390161E08DE00E94B50086
:1009C000C114D10409F46ACF0E94D501882309F427
:1009D00065CF0E94000062CF4AE0C301B201A4CFFC
:1009E00010921801BBCF6AE070E080E090E00E94B6
:1009F000390160E08DE00E94B5006AE070E080E0BF
:100A000090E00E94390161E08CE0D8CF60E085E0A1
:100A1000D5CFE4E2F1E01382128288EE93E0A0E009
:100A2000B0E084839583A683B78384E091E09183CB
:100A3000808385EC90E09587848784EC90E09787AD
:100A4000868780EC90E0918B808B81EC90E0938B9B
:100A5000828B82EC90E0958B848B86EC90E0978B78
:100A6000868B118E128E138E148E089597FB072E8F
:100A700016F4009407D077FD09D00E946C0507FC9E
:100A800005D03EF4909581959F4F0895709561959E
:100A90007F4F0895A1E21A2EAA1BBB1BFD010DC0BA
:100AA000AA1FBB1FEE1FFF1FA217B307E407F5071E
:100AB00020F0A21BB30BE40BF50B661F771F881FFA
:100AC000991F1A9469F760957095809590959B0190
:100AD000AC01BD01CF010895AA1BBB1B51E107C0AA
:100AE000AA1FBB1FA617B70710F0A61BB70B881FBE
:100AF000991F5A95A9F780959095BC01CD0108954D
:100B0000EE0FFF1F0590F491E02D0994F894FFCFAC
:100B1000000000000B026B0198015802C901A701F7
:080B2000BB0120636D0A000017
:107E0000112484B714BE81FFF0D085E080938100F7
:107E100082E08093C00088E18093C10086E0809377
:107E2000C20080E18093C4008EE0C9D0259A86E02C
:107E300020E33CEF91E0309385002093840096BBD3
:107E4000B09BFECF1D9AA8958150A9F7CC24DD24C4
:107E500088248394B5E0AB2EA1E19A2EF3E0BF2EE7
:107E6000A2D0813461F49FD0082FAFD0023811F036
:107E7000013811F484E001C083E08DD089C08234E0
:107E800011F484E103C0853419F485E0A6D080C0E4
:107E9000853579F488D0E82EFF2485D0082F10E0AE
:107EA000102F00270E291F29000F111F8ED06801E7
:107EB0006FC0863521F484E090D080E0DECF843638
:107EC00009F040C070D06FD0082F6DD080E0C81688
:107ED00080E7D80618F4F601B7BEE895C0E0D1E017
:107EE00062D089930C17E1F7F0E0CF16F0E7DF06D8
:107EF00018F0F601B7BEE89568D007B600FCFDCFD4
:107F0000A601A0E0B1E02C9130E011968C91119780
:107F100090E0982F8827822B932B1296FA010C0160
:107F200087BEE89511244E5F5F4FF1E0A038BF0790
:107F300051F7F601A7BEE89507B600FCFDCF97BE46
:107F4000E89526C08437B1F42ED02DD0F82E2BD052
:107F50003CD0F601EF2C8F010F5F1F4F84911BD097
:107F6000EA94F801C1F70894C11CD11CFA94CF0C13
:107F7000D11C0EC0853739F428D08EE10CD085E9AC
:107F80000AD08FE07ACF813511F488E018D01DD067
:107F900080E101D065CF982F8091C00085FFFCCF94
:107FA0009093C60008958091C00087FFFCCF809118
:107FB000C00084FD01C0A8958091C6000895E0E648
:107FC000F0E098E1908380830895EDDF803219F02E
:107FD00088E0F5DFFFCF84E1DECF1F93182FE3DFCA
:107FE0001150E9F7F2DF1F91089580E0E8DFEE27F6
:047FF000FF270994CA
:027FFE00040479
:00000001FF
