:100000000C9462000C948A000C948A000C948A0070
:100010000C948A000C948A000C948A000C948A0038
:100020000C948A000C948A000C948A000C948A0028
:100030000C948A000C948A000C948A000C948A0018
:100040000C9417020C948A000C9487020C946102A1
:100050000C948A000C948A000C948A000C948A00F8
:100060000C948A000C948A000000000024002700F1
:100070002A000000000023002600290000000000E4
:10008000250028002B0004040404040404040202D4
:100090000202020203030303030301020408102007
:1000A0004080010204081020010204081020000012
:1000B0000008000201000003040700000000000027
:1000C00000007C0411241FBECFEFD8E0DEBFCDBFFF
:1000D00011E0A0E0B1E0E6EFF9E002C005900D927A
:1000E000A432B107D9F721E0A4E2B1E001C01D922A
:1000F000AC3CB207E1F710E0C2E6D0E004C02197C3
:10010000FE010E94F304C136D107C9F70E94FE0226
:100110000C94F9040C94000090E0FC01E255FF4FB0
:100120002491FC01E656FF4F3491FC01EA57FF4F42
:10013000E491EE23C9F0222339F0233001F1A8F431
:10014000213019F1223029F1F0E0EE0FFF1FE458C1
:10015000FF4FA591B4918FB7F894EC91611126C02F
:1001600030953E233C938FBF08952730A9F0283067
:10017000C9F0243049F7809180008F7D03C08091C1
:1001800080008F7780938000DFCF84B58F7784BD28
:10019000DBCF84B58F7DFBCF8091B0008F778093CC
:1001A000B000D2CF8091B0008F7DF9CF3E2BDACF57
:1001B0003FB7F89480912B0190912C01A0912D01D3
:1001C000B0912E0126B5A89B05C02F3F19F00196CE
:1001D000A11DB11D3FBFBA2FA92F982F8827BC01A1
:1001E000CD01620F711D811D911D42E0660F771FC9
:1001F000881F991F4A95D1F70895AF92BF92CF9269
:10020000DF92EF92FF920F931F93CF93DF936C01D6
:100210007B018B01040F151FEB015E01AE18BF08B7
:10022000C017D10759F06991D601ED91FC91019069
:10023000F081E02DC6010995892B79F7C501DF9181
:10024000CF911F910F91FF90EF90DF90CF90BF90D3
:10025000AF900895FC01538D448D252F30E0842FFD
:1002600090E0821B930B541710F0CF9608950197DE
:100270000895FC01918D828D981761F0A28DAE0FCB
:10028000BF2FB11D5D968C91928D9F5F9F73928F52
:1002900090E008958FEF9FEF0895FC01918D828D7E
:1002A000981731F0828DE80FF11D858D90E008954B
:1002B0008FEF9FEF0895FC01918D228D892F90E0A3
:1002C000805C9F4F821B91098F73992708958FE25D
:1002D00091E00E945B0121E0892B09F420E0822F4C
:1002E000089580E090E0892B29F00E946701811138
:1002F0000C9400000895FC01A48DA80FB92FB11D26
:10030000A35ABF4F2C91848D90E001968F7399274B
:10031000848FA689B7892C93A089B1898C91837029
:1003200080648C93938D848D981306C00288F38922
:10033000E02D80818F7D80830895EF92FF920F934F
:100340001F93CF93DF93EC0181E0888F9B8D8C8D81
:1003500098131AC0E889F989808185FF15C09FB775
:10036000F894EE89FF896083E889F9898081837038
:10037000806480839FBF81E090E0DF91CF911F91E7
:100380000F91FF90EF900895F62E0B8D10E00F5F08
:100390001F4F0F731127E02E8C8D8E110CC00FB6DE
:1003A00007FCFACFE889F989808185FFF5CFCE0176
:1003B0000E947B01F1CFEB8DEC0FFD2FF11DE35A75
:1003C000FF4FF0829FB7F8940B8FEA89FB898081F9
:1003D0008062CFCFCF93DF93EC01888D8823B9F073
:1003E000AA89BB89E889F9898C9185FD03C0808140
:1003F00086FD0DC00FB607FCF7CF8C9185FFF2CFBD
:10040000808185FFEDCFCE010E947B01E9CFDF9196
:10041000CF910895FC0101900020E9F73197AF01D9
:10042000481B590BBC018FE291E00C94FD001F9218
:100430000F920FB60F9211242F933F938F939F9398
:10044000AF93BF938091270190912801A09129013A
:10045000B0912A013091260123E0230F2D3758F562
:100460000196A11DB11D2093260180932701909331
:100470002801A0932901B0932A0180912B0190912A
:100480002C01A0912D01B0912E010196A11DB11D4D
:1004900080932B0190932C01A0932D01B0932E01FA
:1004A000BF91AF919F918F913F912F910F900FBE70
:1004B0000F901F90189526E8230F0296A11DB11DDD
:1004C000D2CF1F920F920FB60F9211242F933F930A
:1004D0004F935F936F937F938F939F93AF93BF934C
:1004E000EF93FF938FE291E00E947B01FF91EF91E8
:1004F000BF91AF919F918F917F916F915F914F913C
:100500003F912F910F900FBE0F901F9018951F9243
:100510000F920FB60F9211242F938F939F93EF9307
:10052000FF93E0913F01F09140018081E09145010E
:10053000F091460182FD1BC09081809148018F5F40
:100540008F7320914901821741F0E0914801F0E05A
:10055000E15DFE4F958F80934801FF91EF919F9150
:100560008F912F910F900FBE0F901F901895808143
:10057000F4CFCF92DF92EF92FF920F931F93E82F69
:10058000F92F05C0015011092109310961F190814C
:1005900096239417B9F305C00150110921093109B7
:1005A00011F1908196239413F7CFC12CD12CE12C1B
:1005B000F12C0AC08FEFC81AD80AE80AF80A0C15FD
:1005C0001D052E053F0579F080818623841791F360
:1005D0006C2D7D2D8E2D9F2D1F910F91FF90EF90F3
:1005E000DF90CF90089560E070E080E090E01F9190
:1005F0000F91FF90EF90DF90CF900895CF93DF930E
:10060000CDB7DEB7A1970FB6F894DEBF0FBECDBF52
:10061000789484B5826084BD84B5816084BD85B5DD
:10062000826085BD85B5816085BD80916E008160E9
:1006300080936E001092810080918100826080938F
:100640008100809181008160809381008091800091
:100650008160809380008091B10084608093B100BC
:100660008091B00081608093B00080917A008460B6
:1006700080937A0080917A00826080937A008091E2
:100680007A00816080937A0080917A0080688093FC
:100690007A001092C100E7EAF0E02491E3E9F0E08B
:1006A0008491882399F090E0880F991FFC01E85904
:1006B000FF4FA591B491FC01E458FF4F85919491AF
:1006C0008FB7F894EC91E22BEC938FBFE6EAF0E061
:1006D0002491E2E9F0E084918823C9F090E0880F4A
:1006E000991FFC01E859FF4FA591B491FC01E45812
:1006F000FF4F459154913FB7F8949C91822F80957C
:1007000098239C93FA019081892380833FBFE091D5
:100710003F01F091400182E08083E0913B01F09144
:100720003C011082E0913D01F0913E018FEC80830D
:1007300010924701E0914301F091440186E08083EB
:10074000E0914101F0914201808180618083E091DC
:100750004101F0914201808188608083E0914101F4
:10076000F0914201808180688083E0914101F091A5
:10077000420180818F7D808323E2222E312C3AE05A
:10078000832E912CA12CB12C61E08DE00E948C0075
:10079000C1010197F1F760E08DE00E948C00E6EA6C
:1007A000F0E06491E2E9F0E08491E82FF0E0EE0FF0
:1007B000FF1FEE58FF4F8591949100E412E42FE063
:1007C00030E0462F0E94B90261157105810591053F
:1007D00029F06F5F7F4F8F4F9F4F9F70CB016AE370
:1007E00070E00E94A90470932501609324016B01BD
:1007F000072E000CEE08FF0877FF68C06DE28FE25D
:1008000091E00E949D0122273327A9012C193D095F
:100810004E095F0919A2CE0181967C01CA01B90176
:10082000A50194010E94BD04605DF70162937F0100
:10083000211531054105510589F7E114F10419F03D
:10084000C7010E940A0282E191E00E940A020E940E
:10085000D8002B013C0184E6C82ED12CE12CF12CD0
:100860000E94D8006419750986099709683E73408B
:1008700081059105A8F3F1E0CF1AD108E108F1084C
:1008800028EE420E23E0521E611C711CC114D104DB
:10089000E104F10429F780912401909125010B973F
:1008A00040F487E191E00E940A0281E291E00E9417
:1008B0000A0280E090E0892B09F466CF0E9467016C
:1008C000882309F461CF0E9400005ECFA701960142
:1008D00019A2CE0181967C01CA01B901A50194013A
:1008E0000E94BD04605DF70162937F01211531050F
:1008F0004105510589F7A1CFEFE2F1E013821282A1
:1009000088EE93E0A0E0B0E084839583A683B7836C
:1009100084E091E09183808385EC90E095878487E3
:1009200084EC90E09787868780EC90E0918B808BB9
:1009300081EC90E0938B828B82EC90E0958B848BA2
:1009400086EC90E0978B868B118E128E138E148E10
:10095000089597FB072E16F4009407D077FD09D071
:100960000E94DF0407FC05D03EF4909581959F4FCF
:100970000895709561957F4F0895A1E21A2EAA1BE4
:10098000BB1BFD010DC0AA1FBB1FEE1FFF1FA2173F
:10099000B307E407F50720F0A21BB30BE40BF50B3C
:1009A000661F771F881F991F1A9469F760957095C5
:1009B000809590959B01AC01BD01CF010895AA1BC4
:1009C000BB1B51E107C0AA1FBB1FA617B70710F03A
:1009D000A61BB70B881F991F5A95A9F7809590956C
:1009E000BC01CD010895EE0FFF1F0590F491E02D9D
:0609F0000994F894FFCF0A
:1009F600000000009D01FD002A01EA015B013901AA
:100A06004D0120636D0A004F4253544143554C4FEC
:040A1600000D0A00C5
:00000001FF
